:1020000000800020754100005D4100005D4100003E
:1020100000000000000000000000000000000000C0
:102020000000000000000000000000005D41000012
:1020300000000000000000005D410000C9410000F8
:102040005D4100005D4100005D4100005D41000018
:10205000654500005D4100005D41000061410000F8
:102060005D4100005D410000FD2000009140000046
:10207000814000005D410000714000005D410000B2
:102080005D4100005D4100005D4100005D410000D8
:10209000000000005D4100005D4100005D41000066
:1020A0005D4100005D4100005D4100005D410000B8
:1020B0000000000010B5064C2378002B07D1054B1B
:1020C000002B02D0044800E000BF0123237010BDA4
:1020D0005C0200200000000088BD0000044B10B529
:1020E000002B03D00349044800E000BF10BDC046E8
:1020F000000000006002002088BD0000F8B508273D
:10210000234C244AA36A244D1370267EF6B23E4225
:1021100006D02249280002F011FD237E1F432776B6
:1021200004273E4217D01E49280002F007FDA36A8B
:10213000184A1C492800137002F0DCFC154B0A22D7
:102140001978280002F06BFD237E1F4302232776B7
:10215000227E1343237602273E4206D012492800EE
:1021600002F0ECFC237E1F432776F30705D50F49C9
:10217000280002F0E3FCAA23A3620A49280002F027
:10218000B9FC044B2800197802F0E2FC62B6F8BDF5
:10219000000C0042BC0200209C0B0020E0B10000BB
:1021A000F1B1000016B200001DB2000042B2000002
:1021B00037B5154C1549200002F09CFC144D280041
:1021C00000F024FD0100200002F0B8FC2900684660
:1021D00000F013FD0F49200002F08CFC694620003E
:1021E00002F0C0FC280000F015FD05000A4920009F
:1021F00002F080FC29000A22200002F0E1FC0749DD
:10220000200002F09BFC37BD9C0B0020A1B5000014
:10221000CC02002097B20000A4B20000BCB20000C3
:10222000F0B5544D87B05449280001F095FEE121E6
:102230002800490201F082FE0121280001F07AFE07
:102240004E4C00280AD04E49200002F053FC2800D2
:102250000A2101F06AFE280001F06EFE002128002C
:10226000012201F0DDFEE1212000490203F056FDCC
:10227000200003F055FD0028FAD0424F380000F04E
:10228000CDFCFF2804D14049200002F057FCFEE7B6
:1022900000F08EFC0100684603F052FA3B4903A8A7
:1022A00003F04EFA03A9684603F062FB050003A899
:1022B00003F0FEF9002D03D03549200002F03EFC6A
:1022C000344E3568032D11D03349200002F012FC42
:1022D000324D2000290002F031FC2900380000F0C6
:1022E0006BFC30602E4801F0B3FFE9E72D49200078
:1022F00002F000FCFFF75CFF0021092002F06EFAFB
:1023000001210C2002F06AFA00210B2002F066FA8B
:1023100000210D2002F062FA0121132002F05EFA82
:102320000021132002F0A6FA0121142002F056FA2F
:102330000121142002F09EFA0121152002F04EFA2C
:102340000021152002F096FA01210E2002F046FA33
:1023500001210E2002F08EFA0221092002F03EFA3D
:102360002A001149092002F065F8684603F0A0F937
:1023700007B0F0BDF0030020B80B00009C0B00205C
:1023800029B50000CC0200203AB5000061B500007C
:1023900067B50000C802002083B500000C000020D3
:1023A00010270000A8B50000FD20000073B5002133
:1023B000164800910B000A0002F02AFB144B154E40
:1023C0001A78154B154930001A7003F0B9F9144DFD
:1023D000144C2A002100300004F0AAFD124E1349CB
:1023E000300003F0ADF92A002100300004F0A0FD18
:1023F0000F4E1049300003F0A3F92A0021003000ED
:1024000004F096FD0C4800F083FD73BD84020020AB
:10241000BC02002098020020A402002064B2000048
:1024200000000020B15600007802002075B20000C4
:102430008C02002086B20000A802002030B5214C9A
:1024400085B0050050222049200000F017FC00282C
:1024500036D01E49200002F04DFB1D49200002F03D
:1024600049FB1C49200002F045FB1B4901A803F071
:1024700067F91A4901A803F029FA194903F033FA58
:102480000100200002F02FFB01A803F011F915490B
:10249000200002F02FFB1449200002F02BFB0A223F
:1024A000A968200002F0C5FB1049200002F022FBC1
:1024B0002900200002F017FB01F094FE0C4B18607D
:1024C00005B030BDA80200201A000020C1B20000F3
:1024D000D8B20000F2B2000005B30000980200205C
:1024E0005DB300001AB300004BB300005CB3000002
:1024F000C0020020F0B5634C9FB007000D0016002D
:1025000061495022200000F0B9FB002800D1B7E05B
:102510005E49280003F0C1F95D4903A803F010F9F2
:1025200003A906A803F071F9390006A803F0CEF953
:102530000700584909A803F003F909A9380003F076
:10254000C5F9070054490CA803F0FAF80CA93800A3
:1025500003F0BCF9070051490FA803F0F1F80FA9E7
:10256000380003F0B3F907004D4912A803F0E8F86A
:1025700012A9380003F0AAF907004A4915A803F088
:10258000DFF815A9380003F0A1F907000A22A968AD
:1025900018A803F006F918A9380003F097F9070006
:1025A00041491BA803F0CCF81BA9380003F08EF9B1
:1025B0000100684603F029F91BA803F079F818A870
:1025C00003F076F815A803F073F812A803F070F87A
:1025D0000FA803F06DF80CA803F06AF809A803F03F
:1025E00067F806A803F064F803A803F061F86946E9
:1025F000200002F078FA2900200002F074FA01F0BD
:10260000F1FD05001F4C200000F02AFC002809D134
:1026100001F0E8FD254B401B984203D8642001F0EF
:1026200017FEEFE7200000F01BFC002826D0204911
:10263000200002F0BBFD002806D11E4D684603F0C5
:1026400037F828001FB0F0BD01220021200002F061
:1026500017FD0500C828F1D11749200002F0A6FD9A
:102660000028EAD021001BA802F034FD1BA930008D
:1026700003F0BBF81BA803F01BF8DFE70F4DDDE705
:102680000F4DDEE7A80200201A0000205FB3000013
:102690006EB3000074B3000080B300009BB3000071
:1026A000CDB300004BB30000E1B30000871300007E
:1026B000E6B30000D1FEFFFFE2B30000D0FEFFFF53
:1026C000D3FEFFFF30B50E2097B002F01DF80A22AE
:1026D000010001A803F077F80F2002F015F806F0CA
:1026E0001FFBE44AE44B05F00FFD06F09DFB06F0EE
:1026F00049FB0022E14B05F079FFE14B002205F098
:1027000003FD06F091FB0222011C04A803F092F8DD
:10271000DC4C200000F0A4FB200000F02FFCDA4D80
:10272000002805D12B78002B02D0200000F008FCF7
:10273000200000F023FC002846D101F053FDD34BCC
:102740001B68C01AD24B98423ED9D24910A802F059
:10275000F7FF01A910A803F0B9F8CF4903F0C3F8B7
:1027600004A903F0B3F8CD4903F0BDF801A903F0C3
:10277000ADF8CB4903F0B7F804A903F0A7F8C949AD
:1027800003F0B1F801A903F0A1F8C74903F0ABF8D1
:1027900004A903F09BF8C54903F0A5F801A903F0CB
:1027A00095F8C34903F09FF804A903F08FF80100DE
:1027B00013A803F02AF813A8FFF740FE13A802F0AD
:1027C00077FF10A802F074FF200000F0D7FB431E33
:1027D0009841287001F006FDB64D2B68C01AB64B23
:1027E0001B68984200D8BEE1B4490AA802F0A8FFCD
:1027F0000AA910A803F009F8B14B0A2219680DA81C
:1028000002F0E1FF0DA910A803F060F80400AD4943
:1028100013A802F095FF13A9200003F057F8010058
:1028200007A802F0F2FF13A802F042FF0DA802F081
:102830003FFF10A802F03CFF0AA802F039FFA249AE
:102840000DA802F07DFF0DA913A802F0DEFF9F493D
:1028500010A802F0DAFF10A913A803F037F801005E
:102860000AA802F0D2FF10A802F022FF13A802F07B
:102870001FFF0DA802F01CFF95490DA802F060FF94
:1028800007A910A802F0C1FF0AA913A802F0BDFF12
:102890000DAA13A910A8FFF72DFE040013A802F03B
:1028A00007FF10A802F004FF01F09CFC2860C82C70
:1028B00000D060E10F9B002B00D14BE185490DA8B2
:1028C00003F042F8002800D044E183490DA803F04A
:1028D0003BF8002800D03DE180490DA803F034F812
:1028E000002800D036E17E490DA803F02DF800281D
:1028F00000D02FE17B490DA803F026F8002800D076
:1029000028E179490DA803F01FF8002800D021E143
:1029100076490DA803F018F8002800D01AE1744990
:102920000DA803F011F8002800D013E171490DA89B
:1029300003F00AF8002800D00CE16F490DA803F05D
:1029400003F8002800D005E16C490DA802F0FCFF57
:10295000002800D0FEE06A490DA802F0F5FF00282B
:1029600000D0F7E067490DA802F0EEFF002800D084
:10297000F0E065490DA802F0E7FF002800D0E9E08B
:1029800062490DA802F0E0FF002800D0E2E06049B3
:102990000DA802F0D9FF002800D0DBE05D490DA8AA
:1029A00002F0D2FF002800D0D4E05B490DA802F06D
:1029B000CBFF002800D0CDE058490DA802F0C4FF9D
:1029C000002800D0C6E056490DA802F0BDFF00283F
:1029D00000D0BFE053490DA802F0B6FF002800D098
:1029E000B8E051490DA802F0AFFF002800D0B1E0D7
:1029F0004E490DA802F0A8FF002800D0AAE04C49DB
:102A00000DA802F0A1FF002800D0A3E049490DA8BD
:102A100002F09AFF002800D09CE047490DA802F080
:102A200093FF002800D095E044490DA802F08CFFE8
:102A3000002800D08EE042490DA802F085FF002852
:102A400000D087E03F490DA802F07EFF002800D0AB
:102A500080E03D490DA802F077FF00287AD13B497C
:102A60000DA802F071FF002874D139490DA802F0B9
:102A70006BFF6FE06666666666666A3F0000E03F71
:102A800000005940A8020020BD020020C002002022
:102A900088130000EFB30000F7B3000000B400009B
:102AA00009B4000013B400001CB4000026B40000F8
:102AB0002FB40000C40200200800002039B4000038
:102AC0000400002045B4000057B400008C02002030
:102AD0005EB3000060B4000064B4000068B400009D
:102AE0006CB4000070B4000075B400007AB400004B
:102AF0007FB4000084B4000089B400008EB40000EC
:102B000093B4000098B400009EB40000A4B4000088
:102B1000AAB40000B0B40000B4B40000B8B400001F
:102B2000BCB40000C0B40000C5B40000CAB40000CA
:102B3000CFB40000D4B40000D9B40000DEB400006B
:102B4000E3B40000E8B40000EEB40000F4B4000008
:102B5000FAB400000DA802F0ABFD0AA802F0A8FD2F
:102B600007A802F0A5FD04A802F0A2FD01A802F04A
:102B70009FFD17B030BD0C4913A802F0E1FD0A22F9
:102B8000210010A802F0FBFD10A913A802F09EFE80
:102B90000100064801F0C8FF10A802F089FD13A843
:102BA00002F086FDD6E7C04600B500009C0B002071
:102BB00010B501F0B7F810BD70B5060008000C00A4
:102BC00006F0A4FFC1B2200000F040FF0424431C23
:102BD00011D001F007FB0024050001F003FB33686E
:102BE000401B984207D2642001F032FB00F06CFFDA
:102BF00004000228F1D9200070BD10B5040001F0D6
:102C0000FFFE200000F088FF200010BD10B500F08E
:102C100097FF10BD10B500F0CBFF10BD10B500F050
:102C200053FF10BD10B50800110001F06FF810BD82
:102C300007B5002104480B000A00009101F0E8FEEE
:102C4000024B034A1A6007BDD0020020CC020020CC
:102C500050C300000020704713B56B460268D9715D
:102C60000733546819000122A04716BD7047007C45
:102C7000FF38431E9841C0B27047000070B50E0087
:102C800086B0040002A8150001F0BAFE02AA3100C5
:102C90000848FFF7C7FF00280AD0074A23680492B4
:102CA000039ADB690192059204A92A002000984743
:102CB00006B070BDCC02002058B9000070B5037C8E
:102CC00004000D001600FF2B02D003689B6A984792
:102CD00000F054FB02002074FF281ED06868002317
:102CE000310000F09DF901F07DFA05002368200015
:102CF000DB6A9847002809D101F074FA0A4B401B9F
:102D0000984203D8012001F0A3FAEFE723682000DE
:102D1000DB6A9847431E984170BD0449044801F09E
:102D20000DFF0020F8E7C0460F270000C8B50000DF
:102D30009C0B002070B5037C04000D001600FF2BD7
:102D400002D003689B6A984700F018FB02002074C9
:102D5000FF281ED068680223310000F061F901F0FD
:102D600041FA050023682000DB6A9847002809D152
:102D700001F038FA0A4B401B984203D8012001F0B9
:102D800067FAEFE723682000DB6A9847431E984103
:102D900070BD0449044801F0D1FE0020F8E7C046A8
:102DA0000F270000C8B500009C0B0020F7B5037C7E
:102DB00004000E001700FF2B02D003689B6A98479F
:102DC00000F0DCFA05002074FF2825D0300006F062
:102DD0009DFE0223C1B2019300953B00002230000A
:102DE00000F05EF901F0FEF9050023682000DB6ABF
:102DF0009847002809D101F0F5F90A4B401B984289
:102E000003D8012001F024FAEFE723682000DB6AF1
:102E10009847431E9841FEBD0349044801F08EFEC9
:102E20000020F8E70F270000C8B500009C0B002029
:102E300070B50500007CFF2804D1012300246B60DD
:102E4000200070BD002AF8D092B200F00DFA041EE6
:102E5000F3D0287C00F048FA0028EED0F0E700001C
:102E600010B5017C0020FF2902D0024800F0F6FCDA
:102E700010BDC046FC020020036837B51B69040082
:102E80009847002809D06B46DD1D217C01232A00CC
:102E9000034800F01FFD28783EBD01204042FBE7BB
:102EA000FC02002010B50C001300017C2200024837
:102EB00000F010FD10BDC046FC02002010B5017CE2
:102EC000014800F0F7FC10BDFC02002007B500230C
:102ED0006A4601931380007C01A900F075FD6B46E2
:102EE0006A461B7850781B02C01880B20EBD13B51D
:102EF00000236A46040001931380087C01A900F0B6
:102F000063FD01A9200001F091FD200016BD000025
:102F100000234360FA239B008360034B0833036064
:102F2000FF2303747047C046DCB5000010B5037C76
:102F30000020FF2B02D0180000F02EF910BD000079
:102F400070B50400007CFF2814D000F0F3F832259F
:102F50002000FFF7EBFF002806D0013D002D03D035
:102F6000642001F075F9F3E7217C034800F05BFC75
:102F7000FF23237470BDC046FC02002070B5037CA3
:102F800004000025FF2B05D003681B699847A84261
:102F900002D00125280070BD2000FFF7C7FF0A28D6
:102FA000F7D8054BC340DB07F3D5217C034800F07D
:102FB0003AFCFF232374EDE7EF040000FC0200203D
:102FC00007B50021034800910B000A0001F020FD25
:102FD00007BDC046D802002007B500210348009174
:102FE0000B000A0001F014FD07BDC046E0020020FE
:102FF00007B50021034800910B000A0001F008FD0D
:1030000007BDC046E802002007B500210348009133
:103010000B000A0001F0FCFC07BDC046F0020020D6
:103020007FB50E0069468C1C23701C4BCD1C1B7891
:1030300001902A70002B01D100F0C8F900F05EFA6F
:1030400000F01CFA04212D2000F0D2FB002201A880
:10305000042100F0D9FA3000002100F0B7FB28006D
:103060000022012100F0D0FA01222000110000F01E
:10307000CBFA00F029FA00F041FA00F0FFF90E2235
:103080000F2300216A446B44117019702D20013107
:1030900000F0E2FA00F018FA7FBDC046F902002005
:1030A0007FB51D00224B06001B780C000192002BFF
:1030B00001D100F08BF900F021FA00F0DFF90521D1
:1030C0002D2000F095FB30000022210000F09CFA3A
:1030D0000022042101A800F097FA0021280000F046
:1030E00075FB0022012108A800F08EFA012209A830
:1030F000110000F089FA032625001135354001340E
:10310000002D02D000F016FAF6E700F0DDF900F02D
:10311000F5F900F0B3F90E220F236A446B44012144
:103120002D2015701D7000F097FA00F0CDF97FBDCD
:10313000F90200201FB56B46DC1D164B20701B7872
:10314000002B01D100F042F900F0D8F900F096F917
:1031500001212E2000F04CFB01222000110000F084
:1031600053FA00F0E7F900F0E5F900F0ADF900F0EE
:10317000C5F900F083F90E220F2300216A446B4445
:10318000117019702E20013100F066FA00F09CF9E0
:103190001FBDC046F90200201FB56B46DC1D174B52
:1031A00020701B78002B01D100F010F900F0A6F977
:1031B00000F064F901212F2000F01AFB0122200009
:1031C000110000F021FA0E2400F0B4F900F0B2F979
:1031D00000F07AF900F092F900F050F90F23002284
:1031E0006C446B441A702270012122002F2000F0E1
:1031F00033FA00F069F9207804B010BDF90200201C
:1032000073B56B46DD1D174B0E001B78140028703C
:10321000002B01D100F0DAF800F070F900F02EF97F
:103220000221452000F0E4FA28000022012100F0EC
:10323000B8FA01220221200000F0B3FA00F07AF976
:1032400000F042F900F05AF900F018F931002200BC
:10325000452000F074FA00F037F92088431E9841A9
:10326000C0B276BDF90200207FB56B46DD1D1D4B57
:103270000E001B7814002870002B01D100F0A6F876
:1032800000F03CF900F0FAF80221442000F0B0FA16
:1032900000220121280000F084FA300001222100E0
:1032A00000F07FFA03262500093535400134002D52
:1032B00002D000F03FF9F6E70E2400F005F900F027
:1032C0001DF900F0DBF80D226C446A442100442013
:1032D0001570258000F0F4F900F0F6F8208804B0AD
:1032E00070BDC046F9020020F0B50E2585B06B46D2
:1032F000002401262A276D44D8712C70DC731E4BE4
:103300001B78002B01D100F061F800F0F7F800F015
:10331000B5F83100380000F06BFA6B46320031002E
:10332000D81D00F071F900F005F900F003F900F084
:10333000CBF800F0E3F800F0A1F80F232A006B446B
:103340003100380000F088F900F0BEF82B78002B2F
:103350000FD101346420A4B200F07AFF2B78002B47
:1033600001D1182CCBD9193C601E8441E0B205B0C4
:10337000F0BD0024F2E7C046F9020020124B13B55D
:103380001B78002B01D100F021F800F0B7F800F015
:1033900075F800213F2000F02BFA00F095F800F0BE
:1033A000ADF800F06BF86B469C1DFF2323706B4655
:1033B000002207331A70012122003F2000F04CF94F
:1033C00000F082F8207816BDF9020020F8B5182325
:1033D000234E244F3370244C04333B70013B237045
:1033E00000F032FE214D1A2804D801232B702378D7
:1033F000DB4323701E4800F0F9FC3078012101F016
:10340000EDF93878002101F0E9F92078012101F087
:10341000E5F901211A2001F0E1F901211A2001F05A
:1034200029FA3078012101F025FA2978207801F075
:1034300021FA0A2000F00CFF297801252078694044
:1034400001F018FA0B4800F003FF00211A2001F0E8
:1034500011FA00211A2001F0C1F9074B1D70F8BDC7
:103460002F0000202D0000202E000020F802002058
:10347000CC030020EE020000F902002013B5002466
:103480006B465C711C71019A0B490C4800F0D6FC2C
:103490000B4B2100187801F0EDF900F0A3FE0400B9
:1034A000084B187801F012FA012804D000F09AFEB7
:1034B000001B0428F4D913BD00127A00CC030020AD
:1034C0002F0000202D00002010B5044B012118789A
:1034D00001F0D0F9024800F0CDFC10BD2F00002013
:1034E000CC03002007B56B46D871D9790248C9B220
:1034F00000F0D4FC0EBDC046CC03002010B5034B39
:10350000187801F0E3F90028F9D110BD2D00002052
:1035100010B50400FF20FFF7E5FF207010BD70B567
:103520000C0005000800FFF7F3FF2078401B434222
:10353000584170BD13B56B46DC1D0023200023707D
:10354000FFF7E6FF207816BD70B50500084CFFF7C1
:10355000F1FFEF2808D0013C002C01D0A842F6D1A1
:10356000401B4342584170BD01204042FBE7C0462A
:10357000E9030000F0B587B004ABDE1D00230500B1
:10358000E020039114003370FFF7DEFF002802D122
:10359000002007B0F0BD3000FFF7BAFF802233787B
:1035A0001543AB42F4D1FFF7C5FF01900028EFD0DF
:1035B00005234343E3180293029B9C421AD0FF2049
:1035C000FFF790FF002720702378BB4210DDA3781F
:1035D00065781B022B43E578FF202D042B432579CA
:1035E0002D061D43FFF77EFFED1928700137EBE72D
:1035F0000534E1E7019B039A9342C9D13100EE20E3
:10360000FFF78DFF0120C4E7F8B5050008000E00A4
:1036100017002C00FFF766FF631B9E4204DD207835
:10362000FFF760FF0134F7E7012F02D1EE20FFF72B
:1036300059FFF8BD10B50400000AFFF753FFE0B2D0
:10364000FFF750FF10BD10B50400FF20FFF74AFF41
:10365000002C00D0207010BDF0B585B01F0002AB6B
:10366000DC1D00230500E020019116002370FFF708
:103670006BFF002802D1002005B0F0BD2000FFF74D
:1036800047FF802223781543AB42F4D12000FFF797
:103690003FFF2378019A9342EDD13800FFF7D3FF23
:1036A00035003A78AB1B9A4204DD2800FFF730FF63
:1036B0000135F6E72100EE20FFF731FF0120DBE7BF
:1036C000F7B56B46DC1D00230500E0200E00170057
:1036D0002370FFF739FF002801D10020FEBD200034
:1036E000FFF716FF802223781543AB42F5D1FFF791
:1036F00021FF00280DD03800FFF7A5FF35003A78EC
:10370000AB1B9A4205DDFF20FFF7ECFE2870013568
:10371000F5E72100EE20FFF702FF0120DEE770B59C
:103720000500FF20FFF7DEFE0400FF20FFF7DAFEB2
:103730002402204380B2002D00D0288070BDF0B557
:10374000002485B002AB0700DD1DE02001911600CA
:103750002C70FFF7F9FEA04202D1002005B0F0BDA9
:103760002800FFF7D5FE80222B781743BB42F4D107
:10377000FFF7E0FE00280ED03000FFF7D0FF3388BF
:10378000A34208D9019BFF201F19FFF7ABFE0134AC
:103790003870A4B2F3E72900EE20FFF7C0FE012045
:1037A000DCE770B504000D0008001600FFF742FFCB
:1037B0006519AC4204D02078FFF794FE0134F8E795
:1037C000012E02D1EE20FFF78DFE70BD70B5040012
:1037D00002200D00FFF786FE200AFFF783FEE0B20D
:1037E000FFF780FE012D02D1EE20FFF77BFE70BDBA
:1037F00070B50400E0200D00FFF774FE7F2020402C
:10380000FFF770FE2800FFF76DFE002D02D1EE20BD
:10381000FFF768FE70BD10B504007822002105F0A6
:1038200019FC200010BD10B50C244C43041920686D
:10383000002805D005F0D6FB002363602360A36059
:1038400010BD70B505000024210028000134FFF7E9
:10385000EAFF0A2CF8D1280070BD0000F7B50C244F
:103860004C430419A36805000E00002B1AD12768E9
:10387000002F05D10E4805F0ABFBA760606020600B
:103880006B469F1D0A4BF0B23A0021683B80FFF760
:10389000B7FC002806D023683A8863600C23734382
:1038A000EB189A600C235E43AD19A868FEBDC046B4
:1038B000DC05000070B504000D00FFF7CFFF002805
:1038C00005D00C21694364186368187870BD012025
:1038D0004042FBE7F8B506000C0017001D00FFF79B
:1038E000BDFF002811D0854200DD05000C235C439C
:1038F00034192A006168380005F090FB28006368DD
:103900005B196360A3685B1BA360F8BD10B5054C31
:103910002000FFF780FF044A0449200003F008FB61
:1039200010BDC046FC02002000000020433800000B
:1039300070B586B0050014000E000B22002102A80D
:1039400005F088FB09232A0A6B441D705A702A0C63
:103950002D0E9A70DD700E236B441E80360C5E8037
:103960001323220A6B441C705A70220C240E9A7086
:10397000DC70144B1B78002B01D1FFF727FDFFF7FC
:10398000BDFDFFF77BFD21200121FFF731FF6B46D5
:103990000122D81DFF2311000370FFF735FEFFF74A
:1039A000C9FDFFF7C7FDFFF78FFDFFF7A7FDFFF785
:1039B00065FD02AA03212120FFF7DCFDFFF784FD4E
:1039C00006B070BDF902002070B586B06B46DE1DF2
:1039D0000C00150030700622002103A805F03AFB08
:1039E0000D23220A6B441C705A70220C240E9A700C
:1039F000DC7012236B441D802D0C5D80124B1B78F4
:103A0000002B01D1FFF7E2FCFFF778FDFFF736FD51
:103A100001213A20FFF7ECFE012230001100FFF7F0
:103A2000F3FDFFF787FDFFF785FDFFF74DFDFFF77E
:103A300065FDFFF723FD03AA02213A20FFF79AFD57
:103A4000FFF742FD06B070BDF90200201D4B73B5B3
:103A50001B7805000C00002B01D1FFF7B7FCFFF726
:103A60004DFDFFF70BFD01211020FFF7C1FE0122E4
:103A700021002800FFF7C8FD0326651D35400134ED
:103A8000002D02D0FFF756FDF7E7FFF71DFDFFF70A
:103A900035FDFFF7F3FC6B469C1D22000733012127
:103AA000102025701D70FFF7D7FD002801D1FF23DE
:103AB0002370FFF709FD01202378834200D00238EC
:103AC00076BDC046F9020020124B13B51B78002BBF
:103AD00001D1FFF77BFCFFF711FDFFF7CFFC0021C1
:103AE0002020FFF785FEFFF7EFFCFFF707FDFFF74C
:103AF000C5FC6B469C1DFF2323706B4600220733D9
:103B00001A70012122002020FFF7A6FDFFF7DCFC40
:103B1000207816BDF902002070B50500054C064A54
:103B200020000649FFF704FF2800210000F08AFF6B
:103B300070BDC046A40300207C0300208003002049
:103B4000194B13B51B78002B01D1FFF73FFCFFF792
:103B5000D5FCFFF793FC23200121FFF749FE6B46BC
:103B60000122981DFF2311000370FFF74DFDFFF7A1
:103B7000E1FCFFF7DFFCFFF7A7FCFFF7BFFCFFF757
:103B80007DFC0A4C20220021200005F063FA6B46E0
:103B9000002207331A70012122002320FFF75CFD69
:103BA000FFF792FC200016BDF902002084030020DC
:103BB000174B07B51B78002B01D1FFF707FCFFF768
:103BC0009DFCFFF75BFC25200121FFF711FE6B46F2
:103BD0000122981CFF2311000370FFF715FDFFF76A
:103BE000A9FCFFF7A7FCFFF76FFCFFF787FCFFF7C7
:103BF00045FC6B46002203331A700192012101AA91
:103C00002520FFF729FDFFF75FFC01980EBDC04698
:103C1000F90200201F4B73B51B780400002B01D163
:103C2000FFF7D4FBFFF76AFCFFF728FC01213420E3
:103C3000FFF7DEFD200005F069FF0122C1B2200080
:103C4000FFF7E2FC200005F061FF0325441D26007C
:103C50002E4003D0FFF76EFC0134F8E7FFF734FC89
:103C6000FFF74CFCFFF70AFC6B469D1D9E712A0076
:103C70000733012134201E70FFF7EEFCC4B2FFF7BA
:103C800023FC002C04D02C78013C60424441E4B277
:103C9000200076BDF9020020FF2130B587B00B006F
:103CA000050000910A0004A800F0B2FE164B1B7834
:103CB000002B01D1FFF78AFBFFF720FCFFF7DEFBAB
:103CC00000213520FFF794FDFFF7FEFBFFF716FC00
:103CD000FFF7D4FB0B2300226B441A70012103AAC7
:103CE0003520FFF7B9FC041E08D003A9280000F016
:103CF000A9FE059B6C68E41A631E9C41FFF7E4FB78
:103D0000200007B030BDC046F902002010B50C00FD
:103D1000FFF780FF03000020834202D02000FFF75E
:103D2000BBFF10BD114B13B51B78002B01D1FFF762
:103D30004DFBFFF7E3FBFFF7A1FB00213720FFF767
:103D400057FDFFF7C1FBFFF7D9FBFFF797FB6B466A
:103D50000022074C07331A70012122003720FFF799
:103D60007BFCFFF7B1FB200016BDC046F902002026
:103D7000A803002007B50021034800910B000A00AA
:103D800000F046FE07BDC04674030020037D002BF3
:103D900004D14375837583610133037570477FB523
:103DA000C36802AD04000E0002916A608B4203D129
:103DB000028AAB889A4218D02000062229000C30D3
:103DC00005F02CF9206801F040F86B79227AE1794E
:103DD00000932068002301F0D9F820682979320087
:103DE00001F004F8206801F026F87FBD70B51826B0
:103DF0000400FFF7CBFF3300082120790D4D43432A
:103E0000EB18595600F07AFD33000821A07943439E
:103E1000EB18595600F072FD082160794643AD1940
:103E2000695600F06BFD044B200006CBFFF7B7FF8F
:103E300070BDC04638B60000E803002007B5437DDA
:103E400000910192002B07D09A070AD5EFF3108357
:103E50005A425341837572B60099019AFFF79FFF4A
:103E600007BDDB07F8D58369014A9BB29360F3E78E
:103E700000180040437D002B05D09A0704D5837DB0
:103E8000002B00D062B67047DB07FCD58369024A7D
:103E90009BB2D360F7E7C0460018004010B5006839
:103EA00000F0DCFF10BD0000114A124B12491360F4
:103EB000002353711371114A11601149D36091802D
:103EC0000D2191710A39537413741375D3711172E2
:103ED0000C4AD3605374137413750B4BD171136078
:103EE0000A4B938019239371183B13727047C04695
:103EF000E803002000093D00F00A0020B003002084
:103F00000C0B0000CC030020F40A00201716000060
:103F100070B50C0000F066F90500241800F062F995
:103F2000854201D88442F9D270BD10B50122FFF755
:103F3000EFFF10BD0120704770470000FA2010B558
:103F40000C00800000F084F92100024801F0E6FE38
:103F500010BDC0469C0B0020002310B54364436095
:103F6000994201D0FFF7E1FF10BD000070B50E00CF
:103F70000500094C0949200000F0BCFD0A2231006F
:103F8000200000F048FE0649200000F0D7FD280080
:103F90003221FFF7CAFF70BD9C0B002028B600003D
:103FA0002FB600000022034B9A60DA601A615A6152
:103FB0007047C046F0030020F7B50191037E05006D
:103FC0006320002B08D0154EFF27300001F014FEAF
:103FD000C0B2002801D16520FEBD300001F00CFE0A
:103FE000C0B20028F7D0300001F042FE04003C408F
:103FF000682C08D009DC582C0DD0632CEDD1019928
:104000002800FFF7B3FF6320E6E7712CFBD0762C86
:10401000E3D1C0B2E0E700232B76F4E79C0B00204D
:1040200070B50400150000290CD00123037600218F
:104030002000FFF7C1FF632804D001212000FFF713
:1040400074FFF4E7257670BD2120704710B501217B
:104050001A2000F0C3FB01211A2000F00BFC012103
:104060001B2000F0BBFB00211B2000F003FC10BD57
:1040700010B5024801F035FA10BDC04638040020E2
:1040800010B5024801F02DFA10BDC046740600209C
:1040900010B5024801F025FA10BDC046B008002056
:1040A000F0B51F4985B01F4800F016FE1E491F4895
:1040B00000F012FE1E4D1F49280000F00DFE1E4E9E
:1040C0001E49300000F008FE1D491E4800F004FEA5
:1040D0001D4F1E49380000F0FFFD01240323390065
:1040E0000093019423000022194801F08FF9002366
:1040F0003100019300941D331E22164801F086F909
:1041000019230393013B0293163B0193009414334C
:1041100017222900104801F035F905B0F0BDC0465E
:1041200000080042EC0A0020000C0042F00A0020C7
:10413000F40A002000100042F80A00200014004297
:1041400000180042FC0A0020000B0020001C004266
:104150003804002074060020B0080020FEE70000AC
:10416000034B10B51B68002B00D0984710BDC0460C
:10417000040B002070B50F490F4CA14204D100F090
:104180008FF800F067FCFEE70C4D00238D42F6D05F
:10419000CA18E818A24205D3094B8242EFD0094958
:1041A000002204E0006804331060F1E704C38B428E
:1041B000FCD3E4E7000000205C0200208CBD00007E
:1041C0005C020020D011002010B500F066F8002835
:1041D00001D100F057F810BD014B18607047C04680
:1041E000040B0020014B18687047C046080B0020E4
:1041F000F7B51348012284461249134C8E68636850
:1042000005689B0E1340019288686268019F920EB8
:104210003A4067463F6893420ED1BD420CD1864278
:104220000AD35B19FA254868AD00861B07486B4323
:104230007043000DC018FEBD3D0013000600E3E70B
:10424000080B002010E000E000ED00E055550000F4
:1042500070B5041E10D0FFF7CBFF050000F01CF86E
:10426000FFF7C6FF054B401B9842F7D9FA23013CE4
:104270009B00ED18002CF3D170BDC046E703000091
:104280007047000010B5034A13680133136000F053
:10429000E7FC10BD080B00207047002070470000AD
:1042A0001E22F0B5504851494368514D93431A00BE
:1042B00002231343436008238A691343FE228B6160
:1042C0002B68D2039B0213404A4A13434A4A936124
:1042D00013000422DC681442FCD00124474A147005
:1042E0001678264203D0567876B2002EF8DB0124E9
:1042F0009460547864B2002CFBDB414C54605478D9
:1043000064B2002CFBDB8224E4015480547864B254
:10431000002CFBDB02249C840E34DE682642FCD099
:10432000384CDC621024DE682642FCD02C68A40ED7
:104330003F2C00D1203C9E6A334FA4023E403443C0
:104340009C629C6A314EA40AA40234439C62304CA5
:10435000DC6200249C841034DE682642FCD02D4CA4
:104360009C841024DE682642FCD002249E8C3443B8
:104370009C841024DE682642FCD00024946054788B
:1043800064B2002CFBDB244C5460547864B2002CE3
:10439000FBDB1C6A214E344080261C621C6AB4433D
:1043A0001C62032393601E4B536053785BB2002B57
:1043B000FBDB0023FF240B721A4A4B728B72CB7209
:1043C000194B1A60194A2B6811689A065B01C90ECD
:1043D0002340520F12020B431343154A13858023C7
:1043E000426813434360F0BD0040004100040040B8
:1043F000246080000606000000080040000C004019
:1044000001040100B905FF7DFF03FFFFFF0100006C
:1044100080BB0A1C2405000000070300FFFCFFFF0F
:1044200003060100006CDC023000002020608000E8
:1044300000400042F7B501921822162442433F4B38
:1044400007009B181C570091631C6ED0102C6CD079
:104450003B4B3C4E1D68002D27D1290044223A4891
:1044600004F0F8FD29004422384804F0F3FD10223E
:10447000374B38491D60CA67C021C120364B4900FF
:104480005A5080001958FF35A94319501A60334B10
:10449000334A5A8002233278134333707378DB092E
:1044A000012BFBD00122264B1A600125A540736920
:1044B00000212B437361380000F020FA009B002B91
:1044C00031D00027224B20499C461B68BA00BB42D2
:1044D0001DD16046013303608D501C4B00999950EB
:1044E000072C19DD0123083CA4000721A140154A2F
:1044F0009B009B189A698A439A61019A042A12D8F0
:104500001000996902F01CFD0B121416180088584F
:10451000A842E1D00137D9E7A4000023E5E705224E
:10452000A2400A439A61ADB2F560F7BD0422F7E7F5
:104530000322F5E70222F3E70122F1E738B6000093
:10454000940B002000180040500B00200C0B0020A2
:10455000980B002004E100E000E100E0000C0040C6
:1045600005400000F8B50024094B1B68A34200D8A1
:10457000F8BD084E084FA5003369EA591A4204D025
:10458000064BEB589847EB5933610134ECE7C046D2
:10459000980B002000180040500B00200C0B00204E
:1045A000FA21314B10B51868890002F0D3FC2F4B6B
:1045B0000138984256D82E492E4A4860C020136AC6
:1045C00000061B021B0A03431362002407238C60AE
:1045D0000B608021136A09061B021B0A0B4313623E
:1045E000FC22254B196A0A431A62FC22196A9201BD
:1045F0000A431A62A022196AD2020A431A622000F0
:104600000021013400F0EAF81F2CF8D11B4B1C00EC
:104610005A7852B2002AFBDB194A5A80194B1A0009
:10462000597EC9090129FBD0E421C90099803F21A5
:10463000D970537EDB09012BFBD0C02300205B0126
:104640001361907000F02EF863785BB2002BFBDBF7
:104650000D4B0E4A6380D379DB09012BFBD041233C
:10466000537010BDFEE7C04630000020FFFFFF0082
:1046700010E000E000ED00E000040040000C00400D
:104680001E4000000040004221400000004800425F
:10469000914202D002D98A1AD0407047521A9040F3
:1046A000FBE70000164A00B51300517EC909012935
:1046B000FBD00138042816D81969124A0A400F2184
:1046C0001A615A788A4302F03BFC0308060B030088
:1046D000110001220A435A7000BD11000322F9E7BC
:1046E00011000222F6E7F02311691B050B430F218D
:1046F000136153788B43190002230B435370EBE78C
:1047000000400042FFFFFFF010B504000D2800D864
:104710000E340121200000F0F1F81823102163432A
:10472000294CE4186156002901D014290DD1274BDA
:104730001800DA79D209012AFBD002241A78A243A0
:104740001A70C379DB09012BFBD021480300427E9C
:10475000D209012AFBD01F2402692140A2430A4347
:1047600002615A7ED209012AFBD0022219780A433B
:104770001A705A7ED209012AFBD00222197B0A4301
:104780001A7301221A765A7ED209012AFBD002221C
:10479000197B0A431A731A7ED207FCD5588B80B254
:1047A0005A7ED209012AFBD002211A788A431A7054
:1047B0005A7ED209012AFBD0064B1A68064B1968AB
:1047C000FFF766FF10BDC04638B600000048004243
:1047D000004000423800002034000020182330B58B
:1047E0001D00040045430820204A55192856013071
:1047F00014D0032912D808006343D156D31802F00D
:104800009FFB02280E1B5868CB010221184A9B18F7
:104810001A1840321170012282405A6030BD586827
:10482000CB010621124A9B181A184032117001223E
:1048300082405A609A61F1E75868CB0106210C4A20
:104840009B181A1840321170012282405A605A6136
:10485000E4E75868CB010221054A9B181A18403238
:104860001170012282409A60D8E7C04638B6000035
:10487000004400411823F0B508245843114A131886
:104880001C5701341BD0012635005F688356BD409C
:104890000D4ADB019A18906805420BD10C00601E8E
:1048A0008441D2194032107834400336A400B0431A
:1048B00020431070044A9B18002901D15D61F0BDAE
:1048C0009D61FCE738B6000000440041182310B594
:1048D0000824434307490020CA181457013408D05C
:1048E0005B560549DB015B18186A5368D840012301
:1048F000184010BD38B60000004400411822424361
:10490000F8B52C4E0300B218127A52B214000132DC
:104910000ED0481C00240C280AD802F011FB071FF7
:104920001F1F1F1F1F1F1F0B0B0B0B0001246442B7
:104930002000F8BD092905D100211800FFF74EFF1E
:104940000024F5E70A2901D10839F6E700240B29EC
:10495000EED10A391800FFF741FFE9E71822534367
:10496000F218556801202C00F356134ADB016E083B
:104970009B18C9B204409E19002C0DD00F2430366C
:104980003278090122401143C9B25B1931704033BA
:104990001A7810431870D3E732000F273032167898
:1049A0005B19BE433143117040331A7810431870BD
:1049B000BEE7C04638B6000000440041F7B5C31D4D
:1049C0000193002306000D00041D009321780A22A4
:1049D000280000F020F92E210700280000F08EF8B2
:1049E000009B3F18DB190093019B01349C42EDD1E1
:1049F000F17928000A2200F00EF9009B1818FEBD7C
:104A0000024B0833036000234360704750B9000035
:104A100030B503AC2578044CC571083404600171CD
:104A20004271837130BDC04650B9000010B504001A
:104A3000034B0422083308C004F0F0FA200010BD34
:104A400050B9000010B504000422043004F0E6FA66
:104A5000200010BD10B5FFF7A3FD04F095FAFFF795
:104A6000F5FA0120FFF7F4FB084C200001F07EFC72
:104A7000200001F01DFDFDF7D3FBFDF723FE044BE5
:104A8000002BFAD000E000BFF7E7C046040C00207E
:104A900000000000F7B506000D000C008B18019314
:104AA000019B671B9C4207D0336821781B6830004C
:104AB000984701340028F3D13800FEBD70B50400DA
:104AC00008000D0005F022F82368020029005B6849
:104AD0002000984770BD10B50B1E02D0FFF7EEFF07
:104AE0000300180010BD10B503688A685B68096888
:104AF000984710BD10B5FFF7EEFF10BD10B5036865
:104B00001B68984710BD0B0010B50A6801001268B9
:104B10001800904710BD000010B50249FFF7CEFF06
:104B200010BDC046E3B3000070B50500FFF7DBFF22
:104B300004002800FFF7F0FF201870BD70B50400D6
:104B4000FFF7C9FF05002000FFF7E6FF401970BD21
:104B500070B50500FFF7D2FF04002800FFF7DCFF67
:104B6000201870BD70B50500FFF7CDFF04002800C8
:104B7000FFF7D2FF201870BDF0B58BB06B46150063
:104B8000002205330600DA770800012D00D80A2537
:104B900009AC290002F064FACAB2130037330700E7
:104BA000DBB2092902D813003033DBB2013C237099
:104BB000002FEED121003000FFF78DFF0BB0F0BDCC
:104BC000F8B506000C00151E04D10368C9B21B68B5
:104BD0009847F8BD0A2A0CD100290BDA2D21FFF7DE
:104BE0008DFF614207002A003000FFF7C5FF38182B
:104BF000EFE7D2B221003000FFF7BEFFE9E710B5C2
:104C0000002A04D10368C9B21B68984710BDD2B20C
:104C1000FFF7B2FFFAE710B5FFF7F1FF10BD70B56F
:104C20000400FFF7ECFF05002000FFF775FF4019B7
:104C300070BD10B5FFF7E3FF10BD000010B5040014
:104C4000FFF71EFB014B1C6010BDC0463C0000205E
:104C50000122024B52421A607047C0463C000020BD
:104C6000164A10B51368591C26D0013B1360002B5F
:104C700022D172B6124B134A0433934213D9124A0B
:104C800001211000147D0C42FCD02021148BFF3137
:104C90009B085B0021431183D3610C4B13800123DC
:104CA000027D1A42FCD0BFF34F8F094B094ADA60EC
:104CB000BFF34F8FC046FDE710BDC0463C0000204B
:104CC00000200000030200000040004102A5FFFF99
:104CD00000ED00E00400FA05016070479446F0B56D
:104CE0009E1E721E96416246056892072F68360620
:104CF0003A4332432A60072505AC24780068A401B2
:104D00002940214342680024022B00D05C03114358
:104D100021434160F0BD30B5C0250368AD031C6878
:104D200012052A402243C0240904A4022140114351
:104D3000196003685A6814435C6030BD012302683F
:104D400011680B43136003681A68D207FCD4DA6950
:104D5000D207F9D470470223026811680B4313602D
:104D60000268D3699B07FCD4704703681A7ED20798
:104D700002D41A7E9207FCD57047002203685A833A
:104D800070470368187E4007C00F70470368187E9D
:104D9000C0097047802302685B42117E0B43137683
:104DA00070470368588B8007C00F70470223026862
:104DB000518B0B43538370470368187EC007C00FA5
:104DC00070470368188DC0B2704703681A7ED20717
:104DD000FCD589B2012019857047012203689A75B4
:104DE0007047012203681A757047000070B50126EC
:104DF00004684B0833403140256809075B070B43C3
:104E00002B43236004685100034802F0A3F80138E3
:104E1000C0B2207370BDC046006CDC020123026882
:104E200011680B43136003681A68D207FCD4DA696F
:104E3000D207F9D470470223026811680B4313604C
:104E40000268D3699B07FCD470470368DA6992074C
:104E5000FCD402211A688A431A6070470268936A78
:104E60005B0A5B021943916203681A7E5207FCD504
:104E7000986AC0B2704700000368214A30B5934277
:104E80002FD0204A93422FD01F4A93422FD01F4A3F
:104E900093422FD01E4A93422FD01E4A93421FD1D5
:104EA0000E2319220121032599401B48C0240160CB
:104EB00099082B40AB40FC359D4089000918A4009F
:104EC0000859A843C0259D402B0003430B51802364
:104ED000DB011A43114B5A805A7852B2002AFBDB8D
:104EE00030BD09231422DDE70A231522DAE70B235C
:104EF0001622D7E70C231722D4E70D231822D1E777
:104F000000080042000C0042001000420014004261
:104F100000180042001C004200E100E0000C0040CC
:104F2000F8B504000F0016001D00FFF7A5FF2000D4
:104F3000FFF704FF1C21BB000B4071072268090C1E
:104F40000B431360842322689375012F1AD110211B
:104F5000012E00D008390C4B69431868C00001F0DD
:104F6000F9FF0722216802408B895203DB04DB0C26
:104F700013438B81226803049089DB0C400B4003B0
:104F800018439081F8BDC04630000020F7B50600F8
:104F9000019308AB1F780D001400FFF73FFF3000AE
:104FA000FFF76AFFC022240592031440BA070C27BA
:104FB00017433C43C0270722BF022D0433683D40FE
:104FC00025431D60019B316813401A0080239B021A
:104FD00013434B60F7BD10B50400FFF703F9E06021
:104FE000236820005B699847002808DAFFF7FAF881
:104FF000E368C01AA3689842F2D30120404210BD72
:1050000010B50400FFF7EEF8E060236820009B690C
:105010009847002808DAFFF7E5F8E368C01AA368A4
:105020009842F2D30120404210BD0000F8B50400C0
:105030000D00160001272000FFF7E2FF00281CDB0F
:105040002D281AD00300303B092B16D9002E01D091
:105050002E2812D0012D0ED0022D07D10938172885
:1050600009D83A008240054B1A4204D02368200038
:105070005B699847DFE701204042F8BD13008000DC
:10508000F8B51700002205000024FFF7CFFFA0426B
:105090001CDB2600874209D02D2819D00300303BA5
:1050A000092B03D80A235C432418303C2B682800C2
:1050B0005B6998472800FFF7A3FF0300303B092BEB
:1050C000E8D98742E6D0002E00D064422000F8BD27
:1050D0000126EBE770B50D000749040000F030FB36
:1050E0002800FFF778FF002804DBC1B2200000F0A1
:1050F000E3FBF5E7200070BD5EB30000F0B50C23C4
:1051000087B003900C0008005A438B180193019B51
:1051100083420AD94368002B05D1001B224C801022
:10512000604307B0F0BD0C30F1E70398FFF753FF81
:10513000071E36DB2000019B8342F6D90668826891
:10514000B35CBB4208D14368013282609A4210D1FD
:10515000041BA4101448E3E7002A0AD083680293D2
:10516000013B8360F15CB94218D1002B03D10133BC
:1051700083600C30DFE70021D51A75190495755C42
:10518000AC46049D6D5C0595059DAC4502D1013191
:105190008B42F4D89942E1D1029BE9E7002BDDD1A3
:1051A000E7E701204042BCE7ABAAAAAA30B5050058
:1051B00085B008000C0004F0A9FC00230290012235
:1051C00001A9280003930194FFF798FF4342584137
:1051D000C0B205B030BD01207047000010B50368B3
:1051E000014A1B6A984710BD130400000300FC33FA
:1051F000D9699A69914203D0DB69C018007D704774
:1052000001204042FBE710B504000069FFF796FD5E
:1052100022000023FC329361D36186229200A418FD
:105220006360A36010BDF02001403039484248411E
:105230007047F0231B011940802306209B009942F0
:105240000AD00133FF330130994205D08023023860
:105250005B00994200D0002070470F2001400020E1
:10526000012903D00239481E8141481C70470000C3
:105270008923F0B5182685B002919B000400C05C1C
:10528000330008214343324D1700EB185956FFF7FE
:1052900035FB304B0821E05C33004343EB18595693
:1052A000FFF72CFB2C4BE25C0393022A09D111334C
:1052B000E05CFF2805D008214643AE197156FFF780
:1052C0001DFB8A26B600A05DFF2819D00121FFF73B
:1052D00085FA1822A35D21495A43AB56AD18DB016C
:1052E00058188B21890060501D4901225B188C21C0
:1052F0008900635069688A408D21890062501A6074
:105300000122029B11002069FFF70AFE39002000EC
:10531000FFF78FFF390005002000FFF79EFF3900DF
:1053200006002000FFF77FFF33000090290020696E
:105330000122FFF7D3FC0B4B2069E25C039BE15C8D
:10534000FFF7E9FC2069FFF706FD05B0F0BDC04698
:1053500038B6000025020000270200001844004172
:105360001444004126020000802210B504005200BF
:10537000002103F06FFE23000022FC335A6020005E
:105380009A6010BDF0B585B01D000AAB1B78040013
:1053900000930BAB1B78160001930CAB1B780F002E
:1053A00002930DAB1B78039300234360FA239B0009
:1053B0008360124B083303601430FFF7D5FF2000E1
:1053C0001D30FF30FFF7D0FF89236A469B0027611D
:1053D000E6540B4B1278E5540A4B2000E2546A461F
:1053E000094B1279E2546A46127A0133E2546A4652
:1053F000127B1033E25405B0F0BDC0465CB900002A
:10540000250200002602000027020000F7B51D005B
:1054100008AB1B780400009309AB1B7816000193BE
:1054200000234360FA239B008360114B0F00083375
:1054300003601430FFF798FF20001D30FF30FFF7A6
:1054400093FF89236A469B002761E654094B127833
:10545000E554094B2000E2546A46084B1279E254A5
:105460008A22293BFF3B9200A3541032A354FEBD75
:105470005CB900002502000026020000270200009F
:105480000300FC3358689B68C01A01D50130FF3017
:10549000704710B5040020001D30FF30FFF7F0FF0B
:1054A0000028F8D12069FFF760FC10BD10B514305A
:1054B000FFF7E6FF10BD0300FC3359689A6891427C
:1054C00004DB5A689868801AFF30704798685B68F8
:1054D000C01A0138F9E710B51D30FF30FFF7EBFFB8
:1054E00010BD10B504000069FFF75BFC002805D073
:1054F0002069FFF766FC2069FFF758FC2069FFF779
:1055000040FC002820D02069FFF75BFC2200FC3221
:105510009369D1690133DBB28B4203D09169611881
:10552000087593618A239B00E35CFF2B0CD020005D
:105530001430FFF7C0FF092806DC8B238D229B0067
:105540009200E358A2581A602069FFF735FC002842
:105550001AD020001D30FF30FFF792FF002822D024
:1055600086239B00E31899685A68914218D08E21CF
:105570009A684900A218515C9A680132D2B29A60C6
:10558000C9B22069FFF721FC2069FFF7FFFB002863
:1055900005D02069FFF7FEFB2069FFF7EEFB10BD89
:1055A00001214942ECE72069FFF71BFCECE7000012
:1055B00070B5040000690D00FFF7FEFB00283ED126
:1055C000FF2686239B00E3185A689968013232400F
:1055D0008A4223D1EFF31083DB0710D41E4B5B68A4
:1055E000DB05DB0DEDD0103B5BB2002B10DA0F2298
:1055F0001340083B9B08194A9B009B181B682069B5
:10560000FFF7DAFB0028DCD02000FFF76AFFD8E7BD
:105610009B08C033124A9B009B58F0E75A6801323E
:1056200016409A68964205D08E215A684900A21801
:1056300055545E602069FFF7D0FB012070BD20004B
:105640001D30FF30FFF71CFF0028B9D12900206969
:10565000FFF7BBFBF1E7C04600ED00E01CED00E00A
:1056600000E100E0030070B5FC33D9699A690400D9
:1056700091421AD0DA698218157DDA690132D2B204
:10568000DA618A239B00E35CFF2B0CD020001430EE
:10569000FFF711FF0A2806DD8C238D229B00920064
:1056A000E358A2581A60280070BD01256D42E8E752
:1056B00010B50400006803F095FC200010BD10B583
:1056C00004000068002801D003F08CFC0023236054
:1056D000A360636010BD70B504000D000068013167
:1056E00004F0C6F9031E01D0012028C470BD036870
:1056F00010B50400002B04D043688B4201D3012075
:1057000010BD2000FFF7E7FF0028F9D0A368002BA9
:10571000F5D122681370F2E770B50E001100040095
:105720001500FFF7E4FF002804D12000FFF7C7FFB2
:10573000200070BDA5603100206804F0DFF9F7E7B4
:10574000002370B504000D0003604360836099423C
:1057500007D0080004F0DAF9290002002000FFF762
:10576000DBFF200070BD70B5050008000C0004F0E0
:10577000CDF9210002002800FFF7CEFF70BD10B563
:10578000002304008AB023606360A360080001A9BD
:1057900001F07FFB200001A9FFF7E5FF20000AB020
:1057A00010BD10B5002304008AB023606360A360BD
:1057B000080001A901F09CFB200001A9FFF7D3FF1D
:1057C00020000AB010BD10B5002304008AB0236089
:1057D0006360A360080001A901F05FFB200001A93C
:1057E000FFF7C1FF20000AB010BD10B50B00040088
:1057F000884205D00968002904D09A68FFF78CFF19
:10580000200010BDFFF75BFFFAE7002310B504008E
:10581000036043608360FFF7E8FF200010BD10B510
:105820000400002903D0FFF79EFF200010BDFFF702
:1058300046FFFAE7002370B516008CB00400036041
:1058400043608360951C081C03F09CFA6DB203ABA7
:1058500000932A00330001F04FFB01002000FFF706
:10586000DEFF20000CB070BDF8B504000F1E02D1A1
:1058700000263000F8BD0126002AFAD08368D5182A
:105880002900FFF734FF0028F2D02368A26839000E
:10589000981804F033F9A560EBE770B50500002017
:1058A0000C00814207D0080004F030F9210002000A
:1058B0002800FFF7D9FF70BD07B5002201AB1970B2
:1058C0005A7019000132FFF7CFFF0EBD10B58A687C
:1058D00009680400FFF7C8FF002802D12000FFF785
:1058E000EEFE200010BD70B504000D1E04D1200096
:1058F000FFF7E5FE200070BD080004F007F929005D
:1059000002002000FFF7B0FF0028F0D0F2E70268A5
:1059100010B50B68002A13D0002B0CD18168180039
:10592000002907D0107805E089681000002901D00F
:105930001878404210BD1900100004F0D5F8F9E7BE
:10594000002BF1D11800F5E7836810B5002B07D1C3
:105950000120002903D0087843425841C0B210BD4D
:105960000068002901D10078F6E704F0BDF8F3E7FC
:1059700010B5FFF7CCFFC00F10BD0020704770B509
:105980000F26CB1D013902003240D5B22C00000990
:105990003034092A00DD07341C70013B8B42F2D100
:1059A00070BD000010B50C000B4B1868FFF7E7FF47
:1059B00021000A4B08311868FFF7E1FF2100084B6E
:1059C00010311868FFF7DBFF2100064B183118680B
:1059D000FFF7D5FF202010BD0CA0800040A0800064
:1059E00044A0800048A0800008B4024B9C461038B8
:1059F00008BC6047A559000070473F20704713B5A9
:105A00006B460268D9710733546819000122A04718
:105A100016BD000070B50A260B7892B06E440233B2
:105A200005000B703C220021300003F013FB3948C5
:105A300001AC06903848242107900620207768465C
:105A4000364AA1742281364A364BA281FD3AFF3A8A
:105A50008018C177684623390630C1776846073019
:105A6000C17702A8C1770720F2770326083169447D
:105A7000C87703A9CE7710212B366E4431700926E2
:105A800021851F3169440E700CA9053E0E7033212B
:105A90002380022369440B7006360DA90E7022493B
:105AA0003536A1863B216E44307010A86274E277CF
:105AB00002703D3269446A440B7013704021002229
:105AC000E37023716371A37341336B4421871970B1
:105AD0005A702B7DC039A370A37263770133DBB298
:105AE000A3776A7D0B200D0068441543C5773120EC
:105AF000684403703A23501C6B44187041230232EF
:105B00000A436B441A7021004222084800F064FFE7
:105B100012B070BD1001042402060524090400001F
:105B200001020000080B000007050000040C002023
:105B300008B4024B9C46103808BC6047155A000058
:105B400070B5027D0B790C0000259A420BD10B78C1
:105B50004E78A12B09D1212E05D107221F492048BB
:105B600000F03AFF0135280070BD212BFBD1202E1B
:105B70002BD1072219491A4800F070FE174B1A78EA
:105B80005978090211439A7812041143DA781206FF
:105B90000A439621C9008A421DD1DB79DB071AD45A
:105BA000FA20FFF74BF800210D4801F021F80125FC
:105BB000232ED8D1E378A2781B021343094A00218F
:105BC0000748136001F014F8CDE7222EEFD18A7850
:105BD000024BDA71D2E7FFF73BF8E4E7440000201C
:105BE000040C00204000002008B4024B9C461038F2
:105BF00008BC6047415B000010B5417D006A01317F
:105C000000F064FD034B1B6801335A1E93411818C2
:105C100010BDC0464C00002010B5417D006A023125
:105C200000F06AFD10BD10B5417D006A023100F040
:105C300031FD10BD70B50D00417D0400130002312F
:105C40002A00006A00F01EFE002801D101236360D3
:105C500070BD000010B5054C23685A1C04D10368C0
:105C60005B69984703002060180010BD4C000020BD
:105C7000074A0300106810B5411C03D001235B42A2
:105C8000136010BD597D186A013100F0ABFDF8E7D3
:105C90004C0000207047002070470000FA239B0052
:105CA00010B583600F4B0022C38203002833836149
:105CB0000D4B04004260C261180044332361083078
:105CC000631D21622060DA778323A362813BE36254
:105CD0008033236300F0C2F82100103100F092F805
:105CE000200010BD0302000090B90000022110B591
:105CF000094B1A68437D5B01D318FF339C7A21431B
:105D00009972437D0133DBB25B01D3180122FF336B
:105D1000997A0A439A7210BDBC10002070470000A7
:105D200010B5FEF75FFAF423FF330024984207D939
:105D3000044B0A20DC79631E9C41E4B2FEF788FA2A
:105D4000200010BD4400002010B502490248FFF7B2
:105D5000A5FF10BD040C00209C0B002070B50E00A8
:105D600000254468002C0BD0236831005B682000BC
:105D70009847002802DB2D18E468F3E701256D42FF
:105D8000280070BD70B50D004468002C08D0236851
:105D900029009B6820009847002802D1E468F4E7B6
:105DA000200070BD70B50D0000264468002C09D09D
:105DB0002368290020001B69984736182D18F6B271
:105DC000E468F3E730002C7070BD70B50D004468D6
:105DD000002C08D0236829001B6820009847002861
:105DE00002D1E468F4E7200070BD70B50D0044688E
:105DF000002C06D023682000DB6829009847E4685F
:105E0000F6E770BDF0B58C79457803002A190020BB
:105E1000072A1FDC5A68824216D159601A78C8795D
:105E20000A7112184D711A7000220B4DD0B28442C3
:105E30000FD98F6858789600F7598600013077514E
:105E400001325870F2E70200D0680028FBD1D1601F
:105E5000E4E70120F0BDC046DC0B00200121064A2A
:105E600010B5136805480B4004D1802464000480F9
:105E70004360116010BDC046D00B0020D40B002041
:105E8000704710B5040001F04FF8200010BD00006D
:105E9000F0B5822919D1C3B2294D5A01AA189169C6
:105EA000284C80010C40C02189052143916126497D
:105EB000083340187021506128685B011A5C8A43DE
:105EC000110030220A431A54F0BD0029FCD1C0262B
:105ED000C1B21B4C4B01E3189A681A4DB6052A4013
:105EE00032439A60194A800182185A600A000727D3
:105EF000246808325201115DB9430F000121394372
:105F000011559F6910493D4040182E439E615861CC
:105F10007020115D814308001021014311559968DB
:105F20000B48A218084080214903014399609968F1
:105F3000890B89039960402311790B431371C3E7DF
:105F4000BC100020FFFFFF8F300C0020F00D002060
:105F5000FF3F00F0EFF3108303600123436072B64C
:105F600070470368002B02D162B6BFF36F8F704792
:105F7000F7B50600FC36B3690400002B18D1B22730
:105F80007F00C55D6846FFF7E5FF019BEDB2013B71
:105F900002D3E55DEDB2FAE768460193FFF7E1FF52
:105FA000002D01D10020FEBD706E336EC01AFAE7DD
:105FB0006846FFF7CFFFD8220025019B5200013B26
:105FC00002D3A55CEDB2FAE768460193FFF7C9FF7B
:105FD000002DE7D0D6235B00E058043BE358E5E70B
:105FE00010B54468FC3043690B48DBB25A01A21873
:105FF000916808330840802149030143916091680A
:106000005B01890B890391602268D31840221979BA
:106010000A431A7110BDC046FF3F00F0F7B50500F6
:10602000FC356B694268DBB2190004000831106866
:1060300049014118C979C90711D55B01D218936884
:106040009B049B0C0CD12000FFF7CAFF63681A6801
:106050006B69DBB208335B01D3187F22DA71F7BDBD
:10606000E969002923D16B66230001266933FF33D8
:10607000EE6168465360B227FFF76CFF7F00B221E4
:10608000019BFF31013B5A1C38D0D822E655520003
:10609000A25C581ED2B26254625C8446002A04D1CB
:1060A00020000193FFF79CFFE9E76346EBE7D62169
:1060B000490063500023EB6123001D33FF3353601D
:1060C0006846D826FFF746FF01277600B221019BDC
:1060D000FF31013B5A1C11D0B222A7555200A25CDD
:1060E000581ED2B26254625C8446002A04D1200059
:1060F0000193FFF775FFE9E76346EBE76846019315
:10610000FFF72FFFA2E7F7B5060068463400FFF758
:1061100021FF0027FF22019BFC34013B0DD3E068E7
:106120002169884204DBE7682069D71B3F18F4E740
:106130002769E1687F1A013FEFE768460193FFF79F
:1061400010FFA3696846002B52D1FFF703FFB2216D
:10615000019B4900013B5A1C0CD0755C5A1EEDB2E4
:10616000002D05D168460193FFF7FBFE2800FEBD18
:106170001300F0E7684601930025FFF7F2FEFF22C7
:10618000236EBD4214D0616E994211D9591CF31887
:106190002166FF33587FE36821690133C0B21340A1
:1061A0008B4203D0E16871180872E3600135E7E7BC
:1061B000626E9A42DAD1002323660133A3616846F6
:1061C000B224FFF7C7FE6400B2220021019BFF3218
:1061D000013B581CC6D03155B05C5F1E002805D06D
:1061E000B15430000193FFF7FBFEEDE73B00F0E711
:1061F000FFF7B0FED821019B4900013B5A1C06D095
:10620000755C5A1EEDB2002DACD01300F6E768465F
:106210000193FFF7A6FED623D4225B0000259C46FF
:106220005200B358BD4203D061467158994220D8FC
:106230006246B2589A4299D1D42200235200B350F8
:106240006846A361D824FFF785FE6400B2220021CE
:10625000019BFF32013B581C00D183E73155B05CF4
:106260005F1E002819D0B15430000193FFF7B8FE2B
:10627000ECE7591CB150FF21F3186933FF3318784C
:10628000E368C0B201330B4021698B4203D0E1685F
:1062900071180872E3600135C3E73B00DBE710B516
:1062A0000400FFF730FF2300FC331969DA689142DC
:1062B00003D01B69E418207A10BD01204042FBE79F
:1062C00010B50400FC34FFF71EFFE0682369C01A14
:1062D00001D50130FF3010BDF0B585B001920091BD
:1062E0000500FFF710FF02A8FFF734FE012000248D
:1062F000FF26039B40425A1E531C1FD02B00FC3329
:1063000001998C4218D2D9681F69C91B01D5013186
:10631000FF31002910D01969DF688C460100BC45A7
:1063200006D019691F69691801373740097A1F615A
:10633000009F39550134E3E7013ADDE702A80392F3
:10634000FFF70FFE200005B0F0BD37B56B46DC1D32
:1063500000230D002370FFF781FD2100FFF7FEFCF5
:106360002B681818286020783EBD00002023F7B560
:10637000414A0500D1690F200B43D36101223F49F7
:106380000B7813430B703E4B19788143197006212B
:106390001C78214319703B490C7822430A701A7803
:1063A00002401A70602219780A431A70364B374A35
:1063B0005A805F78FF09FCD13548FDF70DFF0123B6
:1063C000344C354E2268300011780B431370802214
:1063D0003900520002F03EFE22689378DB07FCD4BD
:1063E00056621F262D4B1B68590B980C9B013140A0
:1063F00030405B0FB14200D105211F2800D1023887
:10640000072B00D1043B31408901178D01912449AC
:1064100030400F40019939431185118D0700B14378
:10642000080038431085118D18031E4B0B407F2147
:10643000034313851378C1200B4013700423226893
:10644000800011780B430C211370226813898B4351
:10645000154913810B581B021B0A0B5080230B603C
:1064600011787E3B0B431370012300212B700F48E2
:10647000FFF754FCF7BDC0460004004058440041FB
:106480003C44004159440041000C004006400000DB
:10649000016E0000BC100020C010002024608000AD
:1064A0003FF8FFFFFF8FFFFF00E100E09C0B0020A3
:1064B0000078002810D00121084B1B681A898A43F4
:1064C0001A810822198B0A431A830422198B0A4362
:1064D0001A830022024B1A607047C046BC1000208D
:1064E000B410002010B50F4A93699B0B9B03936176
:1064F00013680222FF331A729879823A02439A7122
:106500001A7A9207FCD57F24074A2140937A080023
:10651000A3431900802301439172917A5B420B439C
:10652000937210BDBC1000200050004110B50C004B
:10653000FFF794FC2100FFF748FC002804D1034A30
:1065400093699B0B9B03936110BDC046BC10002058
:10655000F7B50D00832A19D1CBB2404C5A01A218CD
:1065600091693F48AD010840C0218905014391610F
:106570003C4920686D187021083355615B011A5C35
:106580008A43110040220A431A54F7BD022A5FD100
:10659000354B8A00D058002802D003685B699847C1
:1065A000DA20400000F0BCFC802204002B4E2F4B70
:1065B0004660036052000021083002F04BFD2200CB
:1065C000B2210023FC324900D36055611361136688
:1065D0009361D36153666354443163500431635013
:1065E00004316354B221FF316354FF202B00034078
:1065F0005901019371188F68194BAD003B40C027BA
:10660000BF051F438F600727019B366808335B0176
:10661000995DB9430F00032139439955230051690E
:10662000666801401D334901FF3371184B60636890
:1066300052691B68024052019B1801221B18997A6B
:1066400020000A439A72FFF7CBFC074BEC509CE703
:1066500011002800FFF71CFC97E7C046BC10002083
:10666000FFFFFF8F300C0020080C0020F0B9000065
:1066700070B505000124064BA200D258002A06D0AE
:10668000210028000134FFF763FF0A2CF3D170BD0D
:10669000DC0B00200B4BCAB20B488901C91853010F
:1066A000C318596199690832890B89039961036894
:1066B00052019A180223D3715179823B0B435371D3
:1066C0007047C046300C0020BC100020084B8A00E8
:1066D000D05810B5002803D003689B68984710BDB8
:1066E000C9B2044B4901591888688004800CF6E748
:1066F000080C0020BC10002010B50C00FFF7E6FFCE
:1067000000280CD0064BE4B21B68083464011C1945
:10671000802362795B42134363710223E37110BDEE
:10672000BC100020F0B51C002A4B85B01B68070088
:106730000D000292002B4AD0274B8A00D058002827
:1067400008D0036822005B68029998470400200083
:1067500005B0F0BD3800FFF7B9FF844204D9290025
:106760003800FFF7B3FF04000121EBB21B4E039387
:106770005B010193F21893689B0B9B039360019A52
:10678000336802989B18FF335A7A0A435A72144BA3
:10679000A901C918220002F041FC002CD7D0290021
:1067A0003800FFF793FF0028D1D14021039B3268C6
:1067B00008335B01D3181879014319710121D9718C
:1067C000019BD318FF339A7A0A439A72BFE70124D8
:1067D0006442BCE7B4100020080C0020BC1000206C
:1067E000F00D002013B56B46DC1D22000123FFF7DE
:1067F00099FF012801D1207816BD01204042FBE716
:1068000070B5CBB2124A13485C018901891802198C
:1068100051609168104D08330D4080214903294390
:10682000402591609168890B8903916001685A0144
:106830008A1816793543157195796D06FCD55B017B
:10684000C918CB79DB07FCD500198068C0B270BDD0
:10685000F00D0020BC100020FF3F00F070B50D00CF
:1068600000211400FFF7CCFFA04200D92000002334
:106870000349A34203D0CA5CEA540133F9E770BD6F
:10688000F00D0020F0B51E003A4B85B01B680F00DC
:106890000192002B35D08023DB019E4231D80025A8
:1068A000354B8A01D3180293002E2CD0334B1B6832
:1068B0000393FF233B401C0000930834039B6401B7
:1068C0001C19A379DB0921D02D4B2E49186800F043
:1068D00041FB2D4B1721584300F03CFB2B4BE27939
:1068E000920713D4DA5D002A01D10138F7D20122D0
:1068F000DA55009B5A01214B9B189A69920B92031F
:106900009A6101256D42280005B0F0BD00221F4BA1
:106910003400DA553F2E09D9009B40245A01174B09
:106920009B188022996912060A439A6122000199F4
:10693000029802F073FB009BA1045A010F4B890CD3
:106940009B18029A2D195A619A69361B920B920371
:106950000A439A61009B039A08335B01D318022211
:10696000DA715979823A0A435A71019B1B190193D2
:106970009AE7C046B4100020300C0020BC10002064
:106980003000002040420F0070110100250C002053
:1069900070B50D001C000D4BAE01F6181100300053
:1069A000220002F03BFBEDB209496D014D196E6109
:1069B000AB69084A20001340AB61AB69A2049B0B92
:1069C000920C9B031343AB6170BDC046300C00209A
:1069D000BC100020FF3F00F0F7B5104B01901B7872
:1069E0000F001500002B0CD10D4B16001C78002C4D
:1069F00009D00C4E0C4834882018641902F00EFBA4
:106A000034802800FEBD002EFBD03A19330000214F
:106A10000198FFF7BDFF2418361AF4E7B00F0020E5
:106A2000B1100020B2100020B10F0020F8B50F0007
:106A300016000024012A26D9100002F0C9FA050028
:106A4000380003F063F8032302220130400028706D
:106A50006B7096420DD9397800290AD0531CDBB2ED
:106A60000137A9549E4203D00232EC54D2B2F0E76F
:106A7000320029000548FFF7AFFF441EA041C4B211
:106A8000280002F0AFFA2000F8BDC046040C002038
:106A9000F0B50024012685B0184B0F0069461E7022
:106AA00005000094FFF751FC154B01A90B806A3BD0
:106AB000FF3BCB715A330B72009B8C7109334B80B7
:106AC0000E4B4E7108711C703A00092F0FD00D4FFC
:106AD00009223E700C4E280000943480FFF77CFFA2
:106AE00069462800FFF731FC328808493C702800CD
:106AF000FFF772FF012005B0F0BDC046B00F0020C7
:106B000009020000B1100020B2100020B10F0020D7
:106B100070B5CE7892B005000C00022E0BD18B79A7
:106B2000C9792E4809021943FFF7B2FF411E884177
:106B3000C0B212B070BDFFF791F92100FFF722F942
:106B4000002803D0C117081AC00FF2E7012E0ED19A
:106B5000E279A37912021A432149112A3CD8D2B210
:106B6000002A39D02800FFF737FF0120E1E7032E84
:106B7000DFD1A378002B28D0022B08D1E279A379AA
:106B8000120218491A432800FFF750FFD1E7012BE2
:106B900005D1E279A37912021A431349F3E7032BD3
:106BA000C7D10100412201A802F054FAFFF756F9BB
:106BB00001A9FFF7F7F8002805D0E279A3791202BE
:106BC0001A4301A9DFE70378FFDEE279A379120215
:106BD0001A430649032AC2D90A78C3E7040C0020E5
:106BE00030BA00000CBA000024BA000020BA00003D
:106BF000CBB204495B01C9188B699B0B9B038B616A
:106C00007047C046BC10002037B5050048780C001E
:106C10000B2810D800F094F9061B0F2B0F4045618C
:106C2000494C5A5D097801AA002906D10223118036
:106C30002800FFF7ADFE01203EBD00231380284B46
:106C40001B78012B00D1137002230021F0E78A7812
:106C50000023012A03D101AA1380224BF0E7204A26
:106C60001370214A93699B0B9B039361E3E78C7834
:106C7000012C06D100211B4B01AA1C7011702300AE
:106C8000D6E70120002CD7D1154B174A187093690D
:106C90009B0B9B039361CFE789782800FFF722FCC9
:106CA000C9E72800FFF734FFC6E701230F4ACCE706
:106CB0000B780020DB06BFD12800FFF7D9FCA278B3
:106CC0000A4B0B481A60FFF711F8CAE70123094A7B
:106CD000BBE78A78074B1A60C3E70020ACE7C046E1
:106CE000240C00202C0C0020BC100020B41000202C
:106CF0009C0B0020B81000203B4BF7B51E78050018
:106D0000002E5FD1394C23689A8B12070DD50822CB
:106D100031009A833000FFF7BBF810222368FF335D
:106D2000997A0A439A72324B1E6023689A8B5207F3
:106D300001D504229A83FF331A7A920603D52022C2
:106D4000597A0A435A721A7AD20623D5694608003C
:106D5000284AC0CAC0C0A268920B9203A260402217
:106D6000587902435A7160230A7828001A422AD1BE
:106D7000FFF74AFF2368FF33002827D08022997944
:106D800052420A439A711A7A520603D54022597A1E
:106D90000A435A727F2601252368FF331E722F0093
:106DA000236808377F01DB19DB79002B07D0124BF2
:106DB000AA00D05800280DD003681B6898470135F9
:106DC000082DECD1F7BDFFF7B1FBD3E720210B4A2B
:106DD0009171D8E7FFF742F82900FFF706F823681A
:106DE000DF19FE71EBE7C046B1100020BC10002097
:106DF000B4100020F00D0020080C0020FF500041CE
:106E000010B50248FFF778FF10BDC046040C002003
:106E1000014B024A1A607047BC100020005000412C
:106E2000F0B50C008BB01600002926D0931E222B43
:106E30002DD80A2A05D1002803DA0127404201ADE6
:106E40000AE00027FBE7310000F00AF9CBB209297C
:106E500016D830332B7001352A000028F3D101AB4E
:106E6000AB42F0D02300002F02D02D21631C2170F3
:106E700001A98A4206D800221A7020000BB0F0BD8A
:106E80005733E7E7013A117819700133F0E700242E
:106E9000F3E710B5FFF7C4FF10BDF0B50D008BB0E0
:106EA000170000290ED0931E222B1FD801AC2600FC
:106EB0002300002809D1A64207D02A00B34210D8E7
:106EC0000023137028000BB0F0BD390000F0C8F8A3
:106ED000CBB2092903D8303323700134E8E75733A4
:106EE000FAE7013B197811700132E7E70025E9E77D
:106EF00010B5FFF7D2FF10BD30B5040087B00D000C
:106F0000064901A802F0D0FD22002B0001A90A9831
:106F100002F0CAFD0A9807B030BDC04642BA000070
:106F200010B502F055F810BD10B502F05BF810BDB9
:106F30000B0010B50100180002F018F810BD000099
:106F400002B4714649084900095C49008E4402BCFC
:106F50007047C046002243088B4274D303098B421A
:106F60005FD3030A8B4244D3030B8B4228D3030C19
:106F70008B420DD3FF22090212BA030C8B4202D3BB
:106F80001212090265D0030B8B4219D300E0090AE3
:106F9000C30B8B4201D3CB03C01A5241830B8B42EC
:106FA00001D38B03C01A5241430B8B4201D34B03D5
:106FB000C01A5241030B8B4201D30B03C01A52413A
:106FC000C30A8B4201D3CB02C01A5241830A8B42BF
:106FD00001D38B02C01A5241430A8B4201D34B02A8
:106FE000C01A5241030A8B4201D30B02C01A52410C
:106FF000CDD2C3098B4201D3CB01C01A52418309C0
:107000008B4201D38B01C01A524143098B4201D3F9
:107010004B01C01A524103098B4201D30B01C01A24
:107020005241C3088B4201D3CB00C01A524183089E
:107030008B4201D38B00C01A524143088B4201D3CB
:107040004B00C01A5241411A00D20146524110462B
:107050007047FFE701B5002000F0F0F802BDC04620
:107060000029F7D076E7704703460B437FD4002210
:1070700043088B4274D303098B425FD3030A8B42CC
:1070800044D3030B8B4228D3030C8B420DD3FF2236
:10709000090212BA030C8B4202D31212090265D004
:1070A000030B8B4219D300E0090AC30B8B4201D3B7
:1070B000CB03C01A5241830B8B4201D38B03C01AFE
:1070C0005241430B8B4201D34B03C01A5241030B75
:1070D0008B4201D30B03C01A5241C30A8B4201D326
:1070E000CB02C01A5241830A8B4201D38B02C01AD1
:1070F0005241430A8B4201D34B02C01A5241030A48
:107100008B4201D30B02C01A5241CDD2C3098B422C
:1071100001D3CB01C01A524183098B4201D38B01A9
:10712000C01A524143098B4201D34B01C01A52414C
:1071300003098B4201D30B01C01A5241C3088B4291
:1071400001D3CB00C01A524183088B4201D38B007C
:10715000C01A524143088B4201D34B00C01A52411E
:10716000411A00D201465241104670475DE0CA0FF5
:1071700000D04942031000D34042534000229C46B5
:1071800003098B422DD3030A8B4212D3FC228901BF
:1071900012BA030A8B420CD3890192118B4208D395
:1071A000890192118B4204D389013AD0921100E0F7
:1071B0008909C3098B4201D3CB01C01A524183090B
:1071C0008B4201D38B01C01A524143098B4201D338
:1071D0004B01C01A524103098B4201D30B01C01A63
:1071E0005241C3088B4201D3CB00C01A52418308DD
:1071F0008B4201D38B00C01A5241D9D243088B4233
:1072000001D34B00C01A5241411A00D201466346D5
:1072100052415B10104601D34042002B00D5494239
:10722000704763465B1000D3404201B5002000F078
:1072300005F802BD0029F8D016E770477047C04630
:107240008446101C62468C46191C634600E0C0460A
:107250001FB500F0F1FE002801D40021C8421FBD77
:1072600010B500F049FE4042013010BD10B500F0ED
:10727000E3FE002801DB002010BD012010BDC04648
:1072800010B500F0D9FE002801DD002010BD01205E
:1072900010BDC04610B500F06BFE002801DC0020D8
:1072A00010BD012010BDC04610B500F061FE0028E1
:1072B00001DA002010BD012010BDC046F0B54F46D8
:1072C0004646D6460C000903C0B5490A470F5E0082
:1072D00039431F03DB0F9C4665007B0A570F1F4392
:1072E0006D0DE40F760DA146C000B846D200AB1B71
:1072F00064457BD0002B5FDD002E00D0A4E03E0073
:10730000164300D112E15E1E002E00D09EE1871AC6
:107310004346B84280410125C91A4042091A0B026E
:1073200000D431E149024E0A002E00D16EE1300056
:1073300001F0FEFD0300083B1F2B00DD61E1202270
:107340003900D21A9E40D1409F400E439D4200DD3D
:1073500051E15D1B6B1C1F2B00DD7CE12021C91A54
:107360003D0030008F408840DD40791E8F41310064
:1073700007222843D940002507433A40002A09D074
:107380000F233B40042B05D03B1DBB42BF417F4236
:10739000C9191F000B0200D426E26A1CC64B550512
:1073A0006D0D9A4200D106E1C44AFF080A40530716
:1073B00052023B43120B8EE0002B00D0B8E06B1C56
:1073C0005B055B0D012B00DC30E1871A4346B842B8
:1073D000B641CB1A76429E1B330200D54CE13B00EE
:1073E0003343A1D100220024002570E0002B00DCF3
:1073F000E5E0002E00D183E0AF4EB54260D080269C
:1074000036043743B846382B00DC3EE1434613438D
:107410001F007A1E97413F18874280414042091859
:107420000B0200D4B0E0A44B01359D4200D1C3E073
:10743000A24A7B080A4001210F401F435108D3078D
:1074400007221F433A4099E79B4EB54238D0802629
:1074500036043743B846382B00DDDCE01F2B00DC58
:1074600030E11E004746203EF740BC46202B04D0AA
:107470004026F31A46469E403243170063467A1E62
:1074800097411F43CCE0002B00D104E24346134355
:1074900000D159E14B07C00818438023C9081B03DA
:1074A000194208D04546ED081D4204D14346D00894
:1074B000590708432900420FC9007F4D1143C000FE
:1074C0004B07CA087C49C00803438D4268D01203A9
:1074D0006D05120B6D0D002112031800130B0A0D20
:1074E00012051A43764B2D0513402B435B00E4072E
:1074F0005B08234319001CBC90469946A246F0BD88
:107500003E00164312D05E1E002E00D000E1871808
:107510008742804141444042091801250B0233D57E
:10752000022585E764463300414610001D00C7E789
:10753000002D00D0DAE00C000443F3D05C1C00D135
:107540009FE15D4CA64200D12FE1DB43382B00DDEB
:1075500066E11F2B00DD83E120240500E41A0F0003
:10756000DD40D940A0404346A7405B1A441EA041DD
:1075700098462F433843171ABA4292414346524223
:10758000991A64463500CAE607223A40002A00D01C
:10759000F6E64B07CA084849FF083B438D4296D19F
:1075A0001900114300D19EE1802109030A4312030F
:1075B000120B414D8FE71500002200238BE7002BB3
:1075C00000D0C7E06B1C5F057F0D012F00DCF1E0F0
:1075D000394DAB4200D1B9E085180A008542894196
:1075E0004244494251180722CF076D082F434908EA
:1075F0003A401D00C2E607223049ED1A31403A40B8
:10760000BCE63E002838864000279FE6380001F09F
:107610008FFC20308EE6434613431F007A1E9741AD
:10762000C71BB84280414042091A78E60E003B0071
:1076300006431343002D61D1002E00D0F4E0002B4F
:1076400000D11BE164463900100039E71A4FBB42F4
:107650007AD03300FFE630001F3DE840202B03D0F6
:107660004021CB1A9E4037437B1E9F410722074390
:107670003A400021002589E7171A4346BA42B6412D
:10768000591A76428E1B64464EE61F2B00DDADE094
:1076900020264746F61AB740B9461700B246DF40E3
:1076A0004E463E4337005646B240561EB24117433F
:1076B0004246DA408918AEE6FF070000FFFF7FFF71
:1076C000FFFF0F8020264746F61AB740B94617003D
:1076D000B246DF404E463E4337005646B240561E45
:1076E000B24117434246DA40891A99E77F4CA642D5
:1076F0005BD0802424045B42214327E7002E0CD179
:10770000002B00D1CBE0644639001000774DD7E65E
:10771000764FBB4218D0330075E6002B14D04B07D0
:10772000C00818438023C9081B03194207D0FC086E
:107730001C4204D17907D0080843E14621004C4699
:10774000420FC9001143C000684DB9E61D00002278
:107750000023C0E6002D5BD10D00054300D1E2E619
:107760005D1C00D1B0E0614DAE421FD0DB43382B31
:1077700071DC1F2B00DD96E020250F00ED1AAF40D5
:10778000B9460700AA46DF404D463D432F00554607
:10779000A840D940451EA84188440743BF189742D6
:1077A00092415142414435003AE664463500414633
:1077B000100085E60B000343002D00D063E6002B8C
:1077C000F5D04346134300D17AE6871887428041BB
:1077D00007224144404209183A400B0200D4D5E642
:1077E000434B01351940C9E5380069E61E0047469C
:1077F000203EF740BC46202B04D04026F31A4646D4
:107800009E403243170063467A1E97411F4302E6AB
:10781000364DAE42CAD080252D045B422943A6E7EF
:107820000843411E8841A6E6002B00D148E6871A8E
:107830004346B842B641CB1A76429E1B33024BD523
:10784000171A4346BA429241591A5242891A0722DC
:1078500064463A4092E501430F00791E8F419DE74F
:107860001C000F00203CE740202B03D04024E31AEB
:1078700099400843411E884138437CE60022002499
:1078800025E6171A4346BA429241591A5242891ABA
:107890006446350043E541461000144D10E6802251
:1078A0000024120380E61D000F00203DEF40BC467F
:1078B000202B03D04025EB1A99400843070063466C
:1078C000781E87411F4369E7871897429B414144CF
:1078D0005B42C9183500A3E53B003343CED00722F5
:1078E00031003A4052E600231A00F4E5FF07000099
:1078F000FFFF7FFFF0B55746DE464E464546E0B5F2
:10790000834607000E03480085B092461C00360BE4
:10791000400DCD0F002800D19DE0954B984239D005
:107920008023F6001B041E43924A7B0F3343994683
:10793000944603006344009300230026FF00029353
:1079400023031B0B98466300E40F52465B0D019422
:1079500000D1B3E086498B4200D19EE04246D1007F
:10796000802212040A435146490F11438B46814934
:1079700052468C4600996344CB1A0021D2000093F2
:107980002B0063409A460F2E00D905E17A4BB600D2
:107990009B599F465B463343994600D0B8E002238B
:1079A0000826002700900293CAE7CB463A000299C6
:1079B0000195019B9A46022927D0032900D180E234
:1079C000012944D06D49009B8C4663441C00002C67
:1079D00038DD530700D013E2D2085B46DB0109D53E
:1079E0005946674B19408B468021C9008C46009B45
:1079F00063441C00634B9C4207DC5B4664055F07E5
:107A00005B0217431B0B620D02E000230027584A5C
:107A100000211B031C0B0B0D1B05234314055A4AA5
:107A2000380013401C4353466400DB0764081C43C2
:107A3000210005B03CBC90469946A246AB46F0BD3D
:107A40000122524201231B1B382B00DCADE1002236
:107A500000230027DCE75B46334399465ED0002EC7
:107A600000D18AE1300001F063FA03000B3B1C2BCC
:107A700000DD7BE11D22D31A5A460100DA400839A5
:107A80008E4013005F46334399468F403F4B00269C
:107A90001B1A00930023029352E7414653460B43BF
:107AA0003B499B468C46009B634400935B46002BFE
:107AB0003BD1022300221E43022161E743461343C8
:107AC0009B4637D04346002B00D162E1404601F08F
:107AD0002FFA03000B3B1C2B00DD53E10200414653
